{
	"14Enum/Enum.sol": {
		"Enum": {
			"abi": [
				{
					"inputs": [],
					"name": "cancel",
					"outputs": [],
					"stateMutability": "nonpayable",
					"type": "function"
				},
				{
					"inputs": [],
					"name": "get",
					"outputs": [
						{
							"internalType": "enum Status",
							"name": "",
							"type": "uint8"
						}
					],
					"stateMutability": "view",
					"type": "function"
				},
				{
					"inputs": [],
					"name": "reset",
					"outputs": [],
					"stateMutability": "nonpayable",
					"type": "function"
				},
				{
					"inputs": [
						{
							"internalType": "enum Status",
							"name": "_status",
							"type": "uint8"
						}
					],
					"name": "set",
					"outputs": [],
					"stateMutability": "nonpayable",
					"type": "function"
				},
				{
					"inputs": [],
					"name": "status",
					"outputs": [
						{
							"internalType": "enum Status",
							"name": "",
							"type": "uint8"
						}
					],
					"stateMutability": "view",
					"type": "function"
				}
			],
			"devdoc": {
				"kind": "dev",
				"methods": {},
				"version": 1
			},
			"evm": {
				"assembly": "    /* \"14Enum/Enum.sol\":96:760  contract Enum {... */\n  mstore(0x40, 0x80)\n  callvalue\n  dup1\n  iszero\n  tag_1\n  jumpi\n  revert(0x00, 0x00)\ntag_1:\n  pop\n  dataSize(sub_0)\n  dup1\n  dataOffset(sub_0)\n  0x00\n  codecopy\n  0x00\n  return\nstop\n\nsub_0: assembly {\n        /* \"14Enum/Enum.sol\":96:760  contract Enum {... */\n      mstore(0x40, 0x80)\n      callvalue\n      dup1\n      iszero\n      tag_1\n      jumpi\n      revert(0x00, 0x00)\n    tag_1:\n      pop\n      jumpi(tag_2, lt(calldatasize, 0x04))\n      shr(0xe0, calldataload(0x00))\n      dup1\n      0x200d2ed2\n      eq\n      tag_3\n      jumpi\n      dup1\n      0x24b8ba5f\n      eq\n      tag_4\n      jumpi\n      dup1\n      0x6d4ce63c\n      eq\n      tag_5\n      jumpi\n      dup1\n      0xd826f88f\n      eq\n      tag_6\n      jumpi\n      dup1\n      0xea8a1af0\n      eq\n      tag_7\n      jumpi\n    tag_2:\n      revert(0x00, 0x00)\n        /* \"14Enum/Enum.sol\":164:184  Status public status */\n    tag_3:\n      tag_8\n      tag_9\n      jump\t// in\n    tag_8:\n      mload(0x40)\n      tag_10\n      swap2\n      swap1\n      tag_11\n      jump\t// in\n    tag_10:\n      mload(0x40)\n      dup1\n      swap2\n      sub\n      swap1\n      return\n        /* \"14Enum/Enum.sol\":435:506  function set(Status _status) public {... */\n    tag_4:\n      tag_12\n      0x04\n      dup1\n      calldatasize\n      sub\n      dup2\n      add\n      swap1\n      tag_13\n      swap2\n      swap1\n      tag_14\n      jump\t// in\n    tag_13:\n      tag_15\n      jump\t// in\n    tag_12:\n      stop\n        /* \"14Enum/Enum.sol\":327:403  function get() public view returns (Status) {... */\n    tag_5:\n      tag_16\n      tag_17\n      jump\t// in\n    tag_16:\n      mload(0x40)\n      tag_18\n      swap2\n      swap1\n      tag_11\n      jump\t// in\n    tag_18:\n      mload(0x40)\n      dup1\n      swap2\n      sub\n      swap1\n      return\n        /* \"14Enum/Enum.sol\":701:757  function reset() public {... */\n    tag_6:\n      tag_19\n      tag_20\n      jump\t// in\n    tag_19:\n      stop\n        /* \"14Enum/Enum.sol\":556:624  function cancel() public {... */\n    tag_7:\n      tag_21\n      tag_22\n      jump\t// in\n    tag_21:\n      stop\n        /* \"14Enum/Enum.sol\":164:184  Status public status */\n    tag_9:\n      0x00\n      0x00\n      swap1\n      sload\n      swap1\n      0x0100\n      exp\n      swap1\n      div\n      0xff\n      and\n      dup2\n      jump\t// out\n        /* \"14Enum/Enum.sol\":435:506  function set(Status _status) public {... */\n    tag_15:\n        /* \"14Enum/Enum.sol\":491:498  _status */\n      dup1\n        /* \"14Enum/Enum.sol\":482:488  status */\n      0x00\n      0x00\n        /* \"14Enum/Enum.sol\":482:498  status = _status */\n      0x0100\n      exp\n      dup2\n      sload\n      dup2\n      0xff\n      mul\n      not\n      and\n      swap1\n      dup4\n      0x04\n      dup2\n      gt\n      iszero\n      tag_24\n      jumpi\n      tag_25\n      tag_26\n      jump\t// in\n    tag_25:\n    tag_24:\n      mul\n      or\n      swap1\n      sstore\n      pop\n        /* \"14Enum/Enum.sol\":435:506  function set(Status _status) public {... */\n      pop\n      jump\t// out\n        /* \"14Enum/Enum.sol\":327:403  function get() public view returns (Status) {... */\n    tag_17:\n        /* \"14Enum/Enum.sol\":363:369  Status */\n      0x00\n        /* \"14Enum/Enum.sol\":389:395  status */\n      0x00\n      0x00\n      swap1\n      sload\n      swap1\n      0x0100\n      exp\n      swap1\n      div\n      0xff\n      and\n        /* \"14Enum/Enum.sol\":382:395  return status */\n      swap1\n      pop\n        /* \"14Enum/Enum.sol\":327:403  function get() public view returns (Status) {... */\n      swap1\n      jump\t// out\n        /* \"14Enum/Enum.sol\":701:757  function reset() public {... */\n    tag_20:\n        /* \"14Enum/Enum.sol\":743:749  status */\n      0x00\n      0x00\n        /* \"14Enum/Enum.sol\":736:749  delete status */\n      0x0100\n      exp\n      dup2\n      sload\n      swap1\n      0xff\n      mul\n      not\n      and\n      swap1\n      sstore\n        /* \"14Enum/Enum.sol\":701:757  function reset() public {... */\n      jump\t// out\n        /* \"14Enum/Enum.sol\":556:624  function cancel() public {... */\n    tag_22:\n        /* \"14Enum/Enum.sol\":601:616  Status.Canceled */\n      0x04\n        /* \"14Enum/Enum.sol\":592:598  status */\n      0x00\n      0x00\n        /* \"14Enum/Enum.sol\":592:616  status = Status.Canceled */\n      0x0100\n      exp\n      dup2\n      sload\n      dup2\n      0xff\n      mul\n      not\n      and\n      swap1\n      dup4\n      0x04\n      dup2\n      gt\n      iszero\n      tag_30\n      jumpi\n      tag_31\n      tag_26\n      jump\t// in\n    tag_31:\n    tag_30:\n      mul\n      or\n      swap1\n      sstore\n      pop\n        /* \"14Enum/Enum.sol\":556:624  function cancel() public {... */\n      jump\t// out\n        /* \"#utility.yul\":7:187   */\n    tag_26:\n        /* \"#utility.yul\":55:132   */\n      0x4e487b7100000000000000000000000000000000000000000000000000000000\n        /* \"#utility.yul\":52:53   */\n      0x00\n        /* \"#utility.yul\":45:133   */\n      mstore\n        /* \"#utility.yul\":152:156   */\n      0x21\n        /* \"#utility.yul\":149:150   */\n      0x04\n        /* \"#utility.yul\":142:157   */\n      mstore\n        /* \"#utility.yul\":176:180   */\n      0x24\n        /* \"#utility.yul\":173:174   */\n      0x00\n        /* \"#utility.yul\":166:181   */\n      revert\n        /* \"#utility.yul\":193:307   */\n    tag_32:\n        /* \"#utility.yul\":275:276   */\n      0x05\n        /* \"#utility.yul\":268:273   */\n      dup2\n        /* \"#utility.yul\":265:277   */\n      lt\n        /* \"#utility.yul\":255:301   */\n      tag_44\n      jumpi\n        /* \"#utility.yul\":281:299   */\n      tag_45\n      tag_26\n      jump\t// in\n    tag_45:\n        /* \"#utility.yul\":255:301   */\n    tag_44:\n        /* \"#utility.yul\":193:307   */\n      pop\n      jump\t// out\n        /* \"#utility.yul\":313:442   */\n    tag_33:\n        /* \"#utility.yul\":359:366   */\n      0x00\n        /* \"#utility.yul\":388:393   */\n      dup2\n        /* \"#utility.yul\":377:393   */\n      swap1\n      pop\n        /* \"#utility.yul\":394:436   */\n      tag_47\n        /* \"#utility.yul\":430:435   */\n      dup3\n        /* \"#utility.yul\":394:436   */\n      tag_32\n      jump\t// in\n    tag_47:\n        /* \"#utility.yul\":313:442   */\n      swap2\n      swap1\n      pop\n      jump\t// out\n        /* \"#utility.yul\":448:577   */\n    tag_34:\n        /* \"#utility.yul\":505:514   */\n      0x00\n        /* \"#utility.yul\":538:571   */\n      tag_49\n        /* \"#utility.yul\":565:570   */\n      dup3\n        /* \"#utility.yul\":538:571   */\n      tag_33\n      jump\t// in\n    tag_49:\n        /* \"#utility.yul\":525:571   */\n      swap1\n      pop\n        /* \"#utility.yul\":448:577   */\n      swap2\n      swap1\n      pop\n      jump\t// out\n        /* \"#utility.yul\":583:728   */\n    tag_35:\n        /* \"#utility.yul\":677:721   */\n      tag_51\n        /* \"#utility.yul\":715:720   */\n      dup2\n        /* \"#utility.yul\":677:721   */\n      tag_34\n      jump\t// in\n    tag_51:\n        /* \"#utility.yul\":672:675   */\n      dup3\n        /* \"#utility.yul\":665:722   */\n      mstore\n        /* \"#utility.yul\":583:728   */\n      pop\n      pop\n      jump\t// out\n        /* \"#utility.yul\":734:970   */\n    tag_11:\n        /* \"#utility.yul\":834:838   */\n      0x00\n        /* \"#utility.yul\":872:874   */\n      0x20\n        /* \"#utility.yul\":861:870   */\n      dup3\n        /* \"#utility.yul\":857:875   */\n      add\n        /* \"#utility.yul\":849:875   */\n      swap1\n      pop\n        /* \"#utility.yul\":885:963   */\n      tag_53\n        /* \"#utility.yul\":960:961   */\n      0x00\n        /* \"#utility.yul\":949:958   */\n      dup4\n        /* \"#utility.yul\":945:962   */\n      add\n        /* \"#utility.yul\":936:942   */\n      dup5\n        /* \"#utility.yul\":885:963   */\n      tag_35\n      jump\t// in\n    tag_53:\n        /* \"#utility.yul\":734:970   */\n      swap3\n      swap2\n      pop\n      pop\n      jump\t// out\n        /* \"#utility.yul\":1057:1174   */\n    tag_37:\n        /* \"#utility.yul\":1166:1167   */\n      0x00\n        /* \"#utility.yul\":1163:1164   */\n      0x00\n        /* \"#utility.yul\":1156:1168   */\n      revert\n        /* \"#utility.yul\":1303:1411   */\n    tag_39:\n        /* \"#utility.yul\":1385:1386   */\n      0x05\n        /* \"#utility.yul\":1378:1383   */\n      dup2\n        /* \"#utility.yul\":1375:1387   */\n      lt\n        /* \"#utility.yul\":1365:1405   */\n      tag_58\n      jumpi\n        /* \"#utility.yul\":1401:1402   */\n      0x00\n        /* \"#utility.yul\":1398:1399   */\n      0x00\n        /* \"#utility.yul\":1391:1403   */\n      revert\n        /* \"#utility.yul\":1365:1405   */\n    tag_58:\n        /* \"#utility.yul\":1303:1411   */\n      pop\n      jump\t// out\n        /* \"#utility.yul\":1417:1574   */\n    tag_40:\n        /* \"#utility.yul\":1472:1477   */\n      0x00\n        /* \"#utility.yul\":1510:1516   */\n      dup2\n        /* \"#utility.yul\":1497:1517   */\n      calldataload\n        /* \"#utility.yul\":1488:1517   */\n      swap1\n      pop\n        /* \"#utility.yul\":1526:1568   */\n      tag_60\n        /* \"#utility.yul\":1562:1567   */\n      dup2\n        /* \"#utility.yul\":1526:1568   */\n      tag_39\n      jump\t// in\n    tag_60:\n        /* \"#utility.yul\":1417:1574   */\n      swap3\n      swap2\n      pop\n      pop\n      jump\t// out\n        /* \"#utility.yul\":1580:1927   */\n    tag_14:\n        /* \"#utility.yul\":1648:1654   */\n      0x00\n        /* \"#utility.yul\":1697:1699   */\n      0x20\n        /* \"#utility.yul\":1685:1694   */\n      dup3\n        /* \"#utility.yul\":1676:1683   */\n      dup5\n        /* \"#utility.yul\":1672:1695   */\n      sub\n        /* \"#utility.yul\":1668:1700   */\n      slt\n        /* \"#utility.yul\":1665:1784   */\n      iszero\n      tag_62\n      jumpi\n        /* \"#utility.yul\":1703:1782   */\n      tag_63\n      tag_37\n      jump\t// in\n    tag_63:\n        /* \"#utility.yul\":1665:1784   */\n    tag_62:\n        /* \"#utility.yul\":1823:1824   */\n      0x00\n        /* \"#utility.yul\":1848:1910   */\n      tag_64\n        /* \"#utility.yul\":1902:1909   */\n      dup5\n        /* \"#utility.yul\":1893:1899   */\n      dup3\n        /* \"#utility.yul\":1882:1891   */\n      dup6\n        /* \"#utility.yul\":1878:1900   */\n      add\n        /* \"#utility.yul\":1848:1910   */\n      tag_40\n      jump\t// in\n    tag_64:\n        /* \"#utility.yul\":1838:1910   */\n      swap2\n      pop\n        /* \"#utility.yul\":1794:1920   */\n      pop\n        /* \"#utility.yul\":1580:1927   */\n      swap3\n      swap2\n      pop\n      pop\n      jump\t// out\n\n    auxdata: 0xa2646970667358221220d5104ff8dcc4d979150f25c746ed21cb49f966bc67f46a8d7cb012436cbfb26864736f6c634300081e0033\n}\n",
				"bytecode": {
					"linkReferences": {},
					"object": "6080604052348015600e575f5ffd5b506102668061001c5f395ff3fe608060405234801561000f575f5ffd5b5060043610610055575f3560e01c8063200d2ed21461005957806324b8ba5f146100775780636d4ce63c14610093578063d826f88f146100b1578063ea8a1af0146100bb575b5f5ffd5b6100616100c5565b60405161006e91906101c5565b60405180910390f35b610091600480360381019061008c9190610205565b6100d6565b005b61009b610101565b6040516100a891906101c5565b60405180910390f35b6100b9610115565b005b6100c3610127565b005b5f5f9054906101000a900460ff1681565b805f5f6101000a81548160ff021916908360048111156100f9576100f8610152565b5b021790555050565b5f5f5f9054906101000a900460ff16905090565b5f5f6101000a81549060ff0219169055565b60045f5f6101000a81548160ff0219169083600481111561014b5761014a610152565b5b0217905550565b7f4e487b71000000000000000000000000000000000000000000000000000000005f52602160045260245ffd5b600581106101905761018f610152565b5b50565b5f8190506101a08261017f565b919050565b5f6101af82610193565b9050919050565b6101bf816101a5565b82525050565b5f6020820190506101d85f8301846101b6565b92915050565b5f5ffd5b600581106101ee575f5ffd5b50565b5f813590506101ff816101e2565b92915050565b5f6020828403121561021a576102196101de565b5b5f610227848285016101f1565b9150509291505056fea2646970667358221220d5104ff8dcc4d979150f25c746ed21cb49f966bc67f46a8d7cb012436cbfb26864736f6c634300081e0033",
					"opcodes": "PUSH1 0x80 PUSH1 0x40 MSTORE CALLVALUE DUP1 ISZERO PUSH1 0xE JUMPI PUSH0 PUSH0 REVERT JUMPDEST POP PUSH2 0x266 DUP1 PUSH2 0x1C PUSH0 CODECOPY PUSH0 RETURN INVALID PUSH1 0x80 PUSH1 0x40 MSTORE CALLVALUE DUP1 ISZERO PUSH2 0xF JUMPI PUSH0 PUSH0 REVERT JUMPDEST POP PUSH1 0x4 CALLDATASIZE LT PUSH2 0x55 JUMPI PUSH0 CALLDATALOAD PUSH1 0xE0 SHR DUP1 PUSH4 0x200D2ED2 EQ PUSH2 0x59 JUMPI DUP1 PUSH4 0x24B8BA5F EQ PUSH2 0x77 JUMPI DUP1 PUSH4 0x6D4CE63C EQ PUSH2 0x93 JUMPI DUP1 PUSH4 0xD826F88F EQ PUSH2 0xB1 JUMPI DUP1 PUSH4 0xEA8A1AF0 EQ PUSH2 0xBB JUMPI JUMPDEST PUSH0 PUSH0 REVERT JUMPDEST PUSH2 0x61 PUSH2 0xC5 JUMP JUMPDEST PUSH1 0x40 MLOAD PUSH2 0x6E SWAP2 SWAP1 PUSH2 0x1C5 JUMP JUMPDEST PUSH1 0x40 MLOAD DUP1 SWAP2 SUB SWAP1 RETURN JUMPDEST PUSH2 0x91 PUSH1 0x4 DUP1 CALLDATASIZE SUB DUP2 ADD SWAP1 PUSH2 0x8C SWAP2 SWAP1 PUSH2 0x205 JUMP JUMPDEST PUSH2 0xD6 JUMP JUMPDEST STOP JUMPDEST PUSH2 0x9B PUSH2 0x101 JUMP JUMPDEST PUSH1 0x40 MLOAD PUSH2 0xA8 SWAP2 SWAP1 PUSH2 0x1C5 JUMP JUMPDEST PUSH1 0x40 MLOAD DUP1 SWAP2 SUB SWAP1 RETURN JUMPDEST PUSH2 0xB9 PUSH2 0x115 JUMP JUMPDEST STOP JUMPDEST PUSH2 0xC3 PUSH2 0x127 JUMP JUMPDEST STOP JUMPDEST PUSH0 PUSH0 SWAP1 SLOAD SWAP1 PUSH2 0x100 EXP SWAP1 DIV PUSH1 0xFF AND DUP2 JUMP JUMPDEST DUP1 PUSH0 PUSH0 PUSH2 0x100 EXP DUP2 SLOAD DUP2 PUSH1 0xFF MUL NOT AND SWAP1 DUP4 PUSH1 0x4 DUP2 GT ISZERO PUSH2 0xF9 JUMPI PUSH2 0xF8 PUSH2 0x152 JUMP JUMPDEST JUMPDEST MUL OR SWAP1 SSTORE POP POP JUMP JUMPDEST PUSH0 PUSH0 PUSH0 SWAP1 SLOAD SWAP1 PUSH2 0x100 EXP SWAP1 DIV PUSH1 0xFF AND SWAP1 POP SWAP1 JUMP JUMPDEST PUSH0 PUSH0 PUSH2 0x100 EXP DUP2 SLOAD SWAP1 PUSH1 0xFF MUL NOT AND SWAP1 SSTORE JUMP JUMPDEST PUSH1 0x4 PUSH0 PUSH0 PUSH2 0x100 EXP DUP2 SLOAD DUP2 PUSH1 0xFF MUL NOT AND SWAP1 DUP4 PUSH1 0x4 DUP2 GT ISZERO PUSH2 0x14B JUMPI PUSH2 0x14A PUSH2 0x152 JUMP JUMPDEST JUMPDEST MUL OR SWAP1 SSTORE POP JUMP JUMPDEST PUSH32 0x4E487B7100000000000000000000000000000000000000000000000000000000 PUSH0 MSTORE PUSH1 0x21 PUSH1 0x4 MSTORE PUSH1 0x24 PUSH0 REVERT JUMPDEST PUSH1 0x5 DUP2 LT PUSH2 0x190 JUMPI PUSH2 0x18F PUSH2 0x152 JUMP JUMPDEST JUMPDEST POP JUMP JUMPDEST PUSH0 DUP2 SWAP1 POP PUSH2 0x1A0 DUP3 PUSH2 0x17F JUMP JUMPDEST SWAP2 SWAP1 POP JUMP JUMPDEST PUSH0 PUSH2 0x1AF DUP3 PUSH2 0x193 JUMP JUMPDEST SWAP1 POP SWAP2 SWAP1 POP JUMP JUMPDEST PUSH2 0x1BF DUP2 PUSH2 0x1A5 JUMP JUMPDEST DUP3 MSTORE POP POP JUMP JUMPDEST PUSH0 PUSH1 0x20 DUP3 ADD SWAP1 POP PUSH2 0x1D8 PUSH0 DUP4 ADD DUP5 PUSH2 0x1B6 JUMP JUMPDEST SWAP3 SWAP2 POP POP JUMP JUMPDEST PUSH0 PUSH0 REVERT JUMPDEST PUSH1 0x5 DUP2 LT PUSH2 0x1EE JUMPI PUSH0 PUSH0 REVERT JUMPDEST POP JUMP JUMPDEST PUSH0 DUP2 CALLDATALOAD SWAP1 POP PUSH2 0x1FF DUP2 PUSH2 0x1E2 JUMP JUMPDEST SWAP3 SWAP2 POP POP JUMP JUMPDEST PUSH0 PUSH1 0x20 DUP3 DUP5 SUB SLT ISZERO PUSH2 0x21A JUMPI PUSH2 0x219 PUSH2 0x1DE JUMP JUMPDEST JUMPDEST PUSH0 PUSH2 0x227 DUP5 DUP3 DUP6 ADD PUSH2 0x1F1 JUMP JUMPDEST SWAP2 POP POP SWAP3 SWAP2 POP POP JUMP INVALID LOG2 PUSH5 0x6970667358 0x22 SLT KECCAK256 0xD5 LT 0x4F EXTCALL 0xDC 0xC4 0xD9 PUSH26 0x150F25C746ED21CB49F966BC67F46A8D7CB012436CBFB2686473 PUSH16 0x6C634300081E00330000000000000000 "
				},
				"gasEstimates": {
					"creation": {
						"codeDepositCost": "122800",
						"executionCost": "169",
						"totalCost": "122969"
					},
					"external": {
						"cancel()": "24494",
						"get()": "2582",
						"reset()": "24427",
						"set(uint8)": "24644",
						"status()": "2531"
					}
				},
				"methodIdentifiers": {
					"cancel()": "ea8a1af0",
					"get()": "6d4ce63c",
					"reset()": "d826f88f",
					"set(uint8)": "24b8ba5f",
					"status()": "200d2ed2"
				}
			},
			"storageLayout": {
				"storage": [
					{
						"astId": 5,
						"contract": "14Enum/Enum.sol:Enum",
						"label": "status",
						"offset": 0,
						"slot": "0",
						"type": "t_enum(Status)50"
					}
				],
				"types": {
					"t_enum(Status)50": {
						"encoding": "inplace",
						"label": "enum Status",
						"numberOfBytes": "1"
					}
				}
			},
			"userdoc": {
				"kind": "user",
				"methods": {},
				"version": 1
			}
		}
	}
}